{
  "contractName": "Fluthereum",
  "abi": [
    {
      "inputs": [],
      "payable": false,
      "stateMutability": "nonpayable",
      "type": "constructor"
    },
    {
      "constant": true,
      "inputs": [
        {
          "internalType": "address",
          "name": "",
          "type": "address"
        }
      ],
      "name": "balances",
      "outputs": [
        {
          "internalType": "int256",
          "name": "",
          "type": "int256"
        }
      ],
      "payable": false,
      "stateMutability": "view",
      "type": "function"
    },
    {
      "constant": true,
      "inputs": [],
      "name": "getBalanceAmount",
      "outputs": [
        {
          "internalType": "int256",
          "name": "",
          "type": "int256"
        }
      ],
      "payable": false,
      "stateMutability": "view",
      "type": "function"
    },
    {
      "constant": true,
      "inputs": [
        {
          "internalType": "address",
          "name": "account",
          "type": "address"
        }
      ],
      "name": "getBalanceByAddress",
      "outputs": [
        {
          "internalType": "int256",
          "name": "",
          "type": "int256"
        }
      ],
      "payable": false,
      "stateMutability": "view",
      "type": "function"
    },
    {
      "constant": true,
      "inputs": [],
      "name": "testeTuga2",
      "outputs": [
        {
          "internalType": "string",
          "name": "",
          "type": "string"
        }
      ],
      "payable": false,
      "stateMutability": "pure",
      "type": "function"
    },
    {
      "constant": true,
      "inputs": [],
      "name": "getDepositAmount",
      "outputs": [
        {
          "internalType": "int256",
          "name": "",
          "type": "int256"
        }
      ],
      "payable": false,
      "stateMutability": "view",
      "type": "function"
    },
    {
      "constant": false,
      "inputs": [
        {
          "internalType": "int256",
          "name": "amount",
          "type": "int256"
        },
        {
          "internalType": "address",
          "name": "account",
          "type": "address"
        }
      ],
      "name": "addDepositAmount",
      "outputs": [],
      "payable": false,
      "stateMutability": "nonpayable",
      "type": "function"
    },
    {
      "constant": false,
      "inputs": [
        {
          "internalType": "address",
          "name": "account",
          "type": "address"
        }
      ],
      "name": "withDrawBalance",
      "outputs": [],
      "payable": false,
      "stateMutability": "nonpayable",
      "type": "function"
    }
  ],
  "bytecode": "0x608060405234801561001057600080fd5b50600080819055506000600181905550600c600281905550600380819055506104f28061003e6000396000f3fe608060405234801561001057600080fd5b506004361061007d5760003560e01c80637d96f6931161005b5780637d96f6931461015057806385acd2b51461016e578063dc6ec035146101bc578063f7830527146102005761007d565b8063136d6a391461008257806327e235e3146100da57806358d3e10f14610132575b600080fd5b6100c46004803603602081101561009857600080fd5b81019080803573ffffffffffffffffffffffffffffffffffffffff169060200190929190505050610283565b6040518082815260200191505060405180910390f35b61011c600480360360208110156100f057600080fd5b81019080803573ffffffffffffffffffffffffffffffffffffffff1690602001909291905050506102cc565b6040518082815260200191505060405180910390f35b61013a6102e4565b6040518082815260200191505060405180910390f35b6101586102ed565b6040518082815260200191505060405180910390f35b6101ba6004803603604081101561018457600080fd5b8101908080359060200190929190803573ffffffffffffffffffffffffffffffffffffffff1690602001909291905050506102f7565b005b6101fe600480360360208110156101d257600080fd5b81019080803573ffffffffffffffffffffffffffffffffffffffff1690602001909291905050506103a4565b005b610208610480565b6040518080602001828103825283818151815260200191508051906020019080838360005b8381101561024857808201518184015260208101905061022d565b50505050905090810190601f1680156102755780820380516001836020036101000a031916815260200191505b509250505060405180910390f35b6000600460008373ffffffffffffffffffffffffffffffffffffffff1673ffffffffffffffffffffffffffffffffffffffff168152602001908152602001600020549050919050565b60046020528060005260406000206000915090505481565b60008054905090565b6000600154905090565b816001540160018190555081600460008373ffffffffffffffffffffffffffffffffffffffff1673ffffffffffffffffffffffffffffffffffffffff1681526020019081526020016000205401600460008373ffffffffffffffffffffffffffffffffffffffff1673ffffffffffffffffffffffffffffffffffffffff16815260200190815260200160002081905550600254600154126103a057600354600154016000819055505b5050565b600460008273ffffffffffffffffffffffffffffffffffffffff1673ffffffffffffffffffffffffffffffffffffffff1681526020019081526020016000205460005403600081905550600460008273ffffffffffffffffffffffffffffffffffffffff1673ffffffffffffffffffffffffffffffffffffffff16815260200190815260200160002054600154036001819055506000600460008373ffffffffffffffffffffffffffffffffffffffff1673ffffffffffffffffffffffffffffffffffffffff1681526020019081526020016000208190555050565b60606040518060400160405280600381526020017f6f6c61000000000000000000000000000000000000000000000000000000000081525090509056fea265627a7a72315820eae855f71b66ed09621c78db4a2f64362d3c1aec680dc6799045025c16cdf6c964736f6c63430005100032",
  "source": "// SPDX-License-Identifier: MIT\npragma solidity 0.5.16;\n\ncontract Fluthereum {\n    // amount returned to user\n    int256 balanceAmount;\n    \n    // amount deposited by user\n    int256 depositAmount;\n    \n    // minimum amount to be deposited by user\n    int256 thresholdAmount;\n    \n    // amount to be returned in addition to depositAmount to user\n    int256 returnOnInvestment;\n\n    mapping(address => int256) public balances;\n\n    constructor() public{\n        balanceAmount = 0;\n        depositAmount = 0;\n        thresholdAmount =12;\n        returnOnInvestment = 3;\n    }\n    \n    function parseAddr(string memory _a) internal pure returns (address _parsedAddress) {\n    bytes memory tmp = bytes(_a);\n    uint160 iaddr = 0;\n    uint160 b1;\n    uint160 b2;\n    for (uint i = 2; i < 2 + 2 * 20; i += 2) {\n        iaddr *= 256;\n        b1 = uint160(uint8(tmp[i]));\n        b2 = uint160(uint8(tmp[i + 1]));\n        if ((b1 >= 97) && (b1 <= 102)) {\n            b1 -= 87;\n        } else if ((b1 >= 65) && (b1 <= 70)) {\n            b1 -= 55;\n        } else if ((b1 >= 48) && (b1 <= 57)) {\n            b1 -= 48;\n        }\n        if ((b2 >= 97) && (b2 <= 102)) {\n            b2 -= 87;\n        } else if ((b2 >= 65) && (b2 <= 70)) {\n            b2 -= 55;\n        } else if ((b2 >= 48) && (b2 <= 57)) {\n            b2 -= 48;\n        }\n        iaddr += (b1 * 16 + b2);\n    }\n    return address(iaddr);\n}\n    \n    function getBalanceAmount() public view returns (int256){\n        return balanceAmount;\n    }\n\n    function getBalanceByAddress(address account) public view returns (int256){\n        return balances[account];\n    }\n\n    function testeTuga2() public pure returns (string memory){\n      return \"ola\";\n    }\n    \n    function getDepositAmount() public view returns (int256){\n        return depositAmount;\n    }\n    \n    function addDepositAmount(int256 amount, address account) public{\n        depositAmount = depositAmount + amount;\n        balances[account] = balances[account] + amount;\n        \n        if(depositAmount >= thresholdAmount) {\n            balanceAmount = depositAmount + returnOnInvestment;\n        }\n    }\n    \n    function withDrawBalance(address account) public{\n        balanceAmount = balanceAmount - balances[account];\n        depositAmount = depositAmount - balances[account];\n        balances[account] = 0;\n    }\n}\n\n",
  "sourcePath": "/Users/localsupport/Downloads/fluthereum-master/contracts/Fluthereum.sol",
  "compiler": {
    "name": "solc",
    "version": "0.5.16+commit.9c3226ce.Emscripten.clang"
  },
  "schemaVersion": "3.4.3",
  "updatedAt": "2021-10-13T10:35:44.139Z",
  "networkType": "ethereum",
  "devdoc": {
    "methods": {}
  },
  "userdoc": {
    "methods": {}
  }
}